:020000021000EC
:1020000000040020A9EF0200EDEF0200EBEF020058
:1020100059790300EDEF0200EDEF0200EDEF020051
:10202000EDEF0200EDEF0200EDEF0200EDEF020038
:10203000EDEF0200EDEF0200352A0100EDEF0200A6
:10204000EDEF0200EDEF0200EDEF0200EDEF020018
:10205000EDEF0200EDEF0200EDEF0200EDEF020008
:10206000EDEF0200EDEF0200EDEF0200EDEF0200F8
:10207000D16F0300EDEF0200EDEF0200EDEF020083
:10208000EDEF0200EDEF0200EDEF0200EDEF0200D8
:10209000EDEF0200EDEF0200EDEF0200EDEF0200C8
:1020A000EDEF0200EDEF0200EDEF0200EDEF0200B8
:1020B000EDEF020015B30200EDEF020001BD0200DA
:1020C000B9BC0200B5BC0200F1B40200FDBC0200C4
:1020D000BDBC0200D5BC0200C1BC020061BD020053
:1020E000799502004197020041BD0200EDEF020028
:1020F0004D760300EDEF0200EDEF0200EDEF020080
:10210000EDEF0200EDEF0200EDEF0200EDEF020057
:10211000EDEF0200EDEF0200EDEF0200EDEF020047
:10212000EDEF0200EDEF0200EDEF0200EDEF020037
:10213000EDEF0200EDEF0200EDEF0200EDEF020027
:1027C0000348044B834202D0034B03B118477047C0
:1027D000B8070020B807002000000000064B07499A
:1027E000C91A891048BF0131491003D0044B0BB1FD
:1027F00001481847704700BFB8070020B8070020FD
:102800000000000010B5064C237843B9FFF7D8FF4D
:10281000044B13B10448AFF300800123237010BDB3
:10282000B807002000000000ACDB030008B5054B32
:102830001BB105490548AFF30080BDE80840FFF72C
:10284000CDBF00BF00000000BC070020ACDB0300D0
:10285000A3F5803A704700BF174B002B08BF134BFE
:102860009D46FFF7F5FF00218B460F461348144A9B
:10287000121A00F063F80E4B002B00D098470D4B56
:10288000002B00D098470020002104000D000D48C7
:10289000002802D00C48AFF3008000F02BF8200095
:1028A000290000F055F800F011F800BF0000080002
:1028B000000000000000000000040020B807002015
:1028C000881F0020000000000000000008B5074B32
:1028D000044613B10021AFF30080054B1868836AEA
:1028E00003B19847204600F031F800BF0000000017
:1028F000608F030070B50D4D00260D4C641BA410B5
:10290000A64209D10B4D00260B4C26F015FB641B8B
:10291000A410A64205D170BD55F8043B0136984776
:10292000EEE755F8043B01369847F2E7B007002080
:10293000B0070020B0070020B4070020024403467F
:10294000934200D1704703F8011BF9E7FEE700BF8F
:1029500008B51DF049F800F005F81DF052F800F038
:1029600002F8FAE77047704710B503682E4A23F45F
:102970007F4323F00703934288B004D02B4A93424D
:1029800044D008B010BD0DF10F0104A809F0ACF857
:10299000014600B1FEE7BDF8143008225BBAADF87D
:1029A00018309DF8133012208DF81A30FF238DF85F
:1029B0001B30FE238DF81C309DF812308DF81D3031
:1029C000BDF810305BBAADF81E3006AB09F05EF80A
:1029D00000B1FEE7164C204608F0F6FF00B1FEE716
:1029E0000221207809F02AF8034600B1FEE7A02270
:1029F00000901146207808F0FFFF00B1FEE70221A9
:102A0000207809F02FF80028BBD0FEE7084C0221FF
:102A1000207809F013F800B1FEE70221207809F0D0
:102A200021F80028ADD0FEE7A0000100A0000601BB
:102A30006404002000F0ACBA1CF0CABF10B5044614
:102A40001CF0EAFF2046FFF78FFF10BD0120704702
:102A500000B5C3B000F0E6F900F00FFA48B1FFF797
:102A6000F5FF30B101A808F0A8FF10B901A8FFF7E1
:102A7000E5FF43B05DF804FB704708B503218020F3
:102A80001BF060FF03214FF480601BF05BFF03210C
:102A90004FF490601BF056FF08214FF4C0601BF00C
:102AA00051FF08214FF4F0601BF04CFF08213E203D
:102AB0001BF048FF08212D201BF044FF002008BD1B
:102AC00008B5184B1B68C3F30743012B0ED1164BF7
:102AD00004205A6E4FF480231449520358BF144AFD
:102AE0004B6601F51041086258BF536620F0AAFCFE
:102AF00020F0D1FC20F032FC24F0E6FC20F050FC69
:102B000020F084FC20F088FCFFF7B7FF20F036FCB3
:102B100020F0B8FC1CF004FB1CF030FBBDE80840C2
:102B20001CF02EBC0080E00F008000500090005090
:102B300000A00050704708B520F0A2FC24F02CFB48
:102B400024F0C4FC1EF016FB24F054FE1DF002FF1E
:102B5000BDE808401EF00EBD08B51CF003FF1CF0D8
:102B600011FFBDE80840FFF767BF70477047704727
:102B7000FFF76EBF70470000431C07B5014606D043
:102B80000023044ACDE90033034824F067FB03B077
:102B90005DF804FBF92E01000009002007B50221B1
:102BA00032200DF1060200F0C3FA18B9BDF8060094
:102BB00008F0CEFF03B05DF804FB000070B50D46D1
:102BC0001646044608B308F0F5FF00B3236813F473
:102BD000807F104B11D001221A7002F0C9FE08F05C
:102BE000F1FB0D4B0D48197808F0F2FB32462946EF
:102BF0002046BDE8704008F0B1BE1B78002BECD138
:102C000008F0C8FF08F08EFFE7E7212070BD40F212
:102C10000440FBE7FC080020990C002089590100C2
:102C20002DE9F043724B05461A78122089B00E4602
:102C3000704902F015F954236A685121B2FBF3F28E
:102C4000002392B2184602F0A1F820B104462046B3
:102C500009B0BDE8F08302F05DF9674B1968674B76
:102C600018681AF06DFC00F025FA0028EED12C7FD0
:102C7000A4B3102C28BF102402F072F8621C81B299
:102C800000230820D2B202F081F80028DED11420FF
:102C90005B4A5C4901F016FF04460028D7D10DF1CC
:102CA000100801F061FDFFF779FF424606212C2054
:102CB00000F03EFA0746002840F08E80404608F0BB
:102CC0008BFA68B130280BD001213C200DF10F02A6
:102CD00000F02EFA034660B1012415E00424CBE78E
:102CE0003C2000F045FA2C2000F042FA00273C4638
:102CF0000AE09DF80F40012C6CD198E803002746AC
:102D00001C460690ADF81C10286918B104F064F850
:102D100000289BD1686900F059F995F82230DA074C
:102D20005CD408F053FF002C8146024614BF414694
:102D30000021284600F0E4F8002887D113F022F89B
:102D40001CF038FE0446002881D1012002F0B2FEBA
:102D5000304602F0E6FD044600287FF478AF22F00A
:102D600077FE044611F0A4FA019021F0D7FE0199F4
:102D70000246204600F020FB044600287FF467AF9F
:102D80002B689B050CD4B9F5FA7F09D91BF06AFFB3
:102D90000121064608461CF023FB30461BF066FF67
:102DA0001BF060FF0646012102201CF019FB304693
:102DB0001BF05CFF144BAA691A6000F03FFA134B3A
:102DC00018601FB1012006A902F0E4FE104801F0CE
:102DD00073FE3CE707467FE7274688E795F8230020
:102DE00008F0D9FE00289CD040F20C442FE700BF29
:102DF000990C002089590100C0050020BC05002065
:102E0000413201003D3201001C090020F808002079
:102E1000792B010000220321014801F0BEBE00BF52
:102E2000140D002010B508F0B5FDC0B100F006FA91
:102E30000D4C2060206808F039F908F0B3FD18B196
:102E400008F088FD02F07AF908F0ACFB18B901F03F
:102E5000DDFC0028EED1BDE8104008F0A5BD08F06B
:102E6000A1FD0028E2D110BDF808002008B508F047
:102E700099FB003818BF012008BD08B5FFF7F6FF21
:102E800018B1BDE8084008F09BBB08BD73B5064605
:102E90000D461446D2B108F081FBA84218D830463E
:102EA00008F09CFB0190A8B108F074FD60B12046C9
:102EB00000232A46019902F037F9002401A802F004
:102EC0003DF9204602B070BD2D24F7E72224F8E733
:102ED0002124F6E72D24F4E7012310B5044C2370D8
:102EE000044B1B6803B198470023237010BD00BF3B
:102EF000F40800201C090020FFF7EEBF00207047F7
:102F000030B50446154687B0084600F0E3FA1422AF
:102F1000002101A8FFF712FDA368ADF80450029349
:102F2000E3680393E38BADF81030238CADF81230D7
:102F3000FFF7E4FF029B8DF8140043F4A05301A8AF
:102F4000029300F079FA10F0FF0516D1A38C0DF171
:102F50000201ADF80030E38C6846ADF8023008F0AD
:102F6000B5F800F079F800F059FA012111F06EFE81
:102F700008F090F9284607B030BD40F20C40FAE75F
:102F80004FF08052014B5A60704700BF00ED00E0E7
:102F90000023044A52E8000F42E800310029F9D129
:102FA00000F094B920090020064A52E8003F03438C
:102FB00042E800310029F8D1034B1B6803B11847E0
:102FC000704700BF2009002024090020034B044A59
:102FD000002818BF03461360704700BF812F01000F
:102FE0002409002037B51C68E10705D508F044F82E
:102FF0001649174801F0F8FDA20723D504F01EF981
:10300000D0B9144D01901BF034FE0446284602F05E
:10301000B3F8019020461BF032FE019890B143793D
:103020009B070CD401A8022102F092FB019804F046
:10303000F5F803F0EDFFE6E703F0EAFFDEE704F062
:10304000E1F8F6E7002003B030BD00BFBC0400206B
:10305000140D00202809002008B5054801F0A6FB42
:10306000044B01211870BDE8084001F0B1BB00BF5E
:10307000CC0400202C09002038B5044648B11BF0D0
:10308000F8FD05462146084802F004FB28461BF0DF
:10309000F6FD064B022193F9000001F099FBBDE813
:1030A0003840FFF719BF00BF280900202C09002075
:1030B000FFF7E2BF0C4B98420BD8023B98420ED868
:1030C00060B1023B98420CD0C0F30C0000F5906058
:1030D0007047064B9842F7D140F21C4070472120C0
:1030E000704740F21B4070470AE000F00BE000F030
:1030F00037B50D4DCDE900210C4904460968286813
:103100001AF01EFAFFF7D6FF58B9DDE90023286848
:1031100044F480211AF0E4FA03B0BDE83040FFF730
:10312000C9BF03B030BD00BFBC050020C0050020F2
:1031300037B50D4DCDE900210C49044609682868D2
:103140001AF0FEF9FFF7B6FF58B9DDE90023286849
:1031500044F480211AF00EFB03B0BDE83040FFF7C5
:10316000A9BF03B030BD00BFBC050020C0050020D2
:1031700038B50A4B0A4D0446196828681AF0E0F978
:10318000FFF798FF40B9286844F480211AF0E4FB67
:10319000BDE83840FFF78EBF38BD00BFC005002036
:1031A000BC0500202DE9F043134B0E461968134B64
:1031B00005468DB0186817461AF0C2F980B9334633
:1031C0000A222846009702A91AF0BCFB4FF000081B
:1031D00004460DF10809444505D1002CEFD12046E5
:1031E0000DB0BDE8F083284659F8041B1AF0B4FB73
:1031F00008F10108EFE700BFC0050020BC05002072
:10320000F8B50C4B0C4F06460C46386819681AF096
:1032100097F9FFF74FFF054648B9E24316FA82F2E5
:10322000386842F4802246F48021FFF7BBFF28462D
:10323000F8BD00BFC0050020BC05002024F067B821
:1032400024F078B8024BD86808B1FFF7ADBE7047DC
:103250003009002070477047CB691847704700203D
:10326000704770477047704770470020704770473D
:10327000112070470020704770474FF000007047E2
:10328000002070477047704700207047002070474B
:1032900000207047002070470020704700207047D2
:1032A00008B50DF027FC08BD0020704700207047CE
:1032B0007047112070477047704708B50DF0AFFE9A
:1032C00008BD7047002070477047704738B500232D
:1032D000384D05F10C0252E8004F114641E800322A
:1032E000002AF6D10443A30201D500F09FF9200182
:1032F00001D500F057FF002C01DA08F031FF610022
:1033000001D520F007FCA20001D50EF0DBFDE300A3
:103310000ED50CF069FA58B905F10C0353E8003FDB
:1033200043F0805305F10C0141E80032002AF3D14B
:1033300060010ED50EF0C0FC58B905F10C0353E83E
:10334000003F43F0806305F10C0141E80032002AA0
:10335000F3D1A10105D508F0C3FC0EF069FDFFF71C
:1033600081FFE20101D5FFF7B0FF630201D5FFF74E
:1033700075FF200201D5FFF785FFE10501D50EF0AD
:1033800073FCA2050ED50FF02BF958B905F10C030B
:1033900053E8003F43F4007305F10C0141E80032AB
:1033A000002AF3D1630503D5FFF754FFFFF753FF5E
:1033B00038BD00BF3009002070B50E4615460DF02F
:1033C000ADFC044648B930460CF01AFE044620B95C
:1033D000284608F043FC044640B100200DF09EFC56
:1033E00000200CF00DFE002008F038FC204670BDD7
:1033F0004FF40010FFF7D8BD044A52E8003F0343E2
:1034000042E800310029F8D1704700BF30090020A0
:10341000014B1B68184070473009002000F0B8BA13
:1034200010B5044BD3E9044220431143C3E904011E
:1034300010BD00BF30090020F8B51E4F05463B689F
:103440000024002B02DA08F073FE30E01A4E4CF232
:103450000C000021FFF7E4FF346025B16B683B608E
:10346000AB6803B133604FF00040FFF7C5FF33682E
:103470000BB9124B3360124B1248BB6002F024FAB6
:1034800008F0FEFC284600F033FD044678B92DB163
:10349000B5F90E10B5F90C0001F0B0F808F022FCF7
:1034A00008F0CAFB01F016F904460028CBD02046EC
:1034B000F8BD00BF3009002048090020DC040020CE
:1034C0004532010034090020014BD3E90401704763
:1034D0003009002009F006BC10B5074C2368DA0655
:1034E00007D523F01003236018B90120A168FFF766
:1034F000B3FE0023A36010BD4C090020014610B5A7
:1035000004460220FFF7A8FE054B1B68D90305D42B
:1035100063691A075CBF43F00403636110BD00BF19
:103520004C090020014BD868DC3870474C0900205A
:10353000034B10B5DC6800F084FBDC3C201A10BDA6
:103540004C090020034B1B6813EA004314BF012001
:10355000002070474C09002038B500230360436900
:10356000044658070DD5204650F8081FC90C01F431
:10357000FC7141F0050108F0ADFC636923F0040320
:1035800063616369D90602D500F05BFB606018488F
:10359000024652F8043F8BB92360146083684BB134
:1035A000617E5A7E914219D26269D2060ED5002000
:1035B000FFF792FFBDE83840FFF71ABF596865680A
:1035C000491B0029E8DA1A461B68E4E75A681B69B8
:1035D000134462689B1A002BECDBE8E71A895B68EE
:1035E000D31A62681344E268D342E3D5DFE700BF31
:1035F0004C09002038B504460A4D0846AB68A34282
:1036000001D1FFF769FF6B68074A1BB1A342196834
:1036100004D11160BDE83840FFF7EABE1A460B46F8
:10362000F3E700BF4C090020500900202DE9F347C3
:10363000744D2B68580700F1DB80AB68002B40F01D
:10364000D78055E8003F43F0040345E80032002AE4
:10365000F7D16C683CB300F0F4FAD4E904370646BD
:1036600017F0100FA06805BF616882B216FA80F2E9
:103670008A1A16BF6260921B0022F90723D4002A1F
:1036800009DAE168591AD1421FD4626816FA80F04B
:1036900013441B1A60602068D4F80480B8B9DC3386
:1036A0004344C5E9024355E8003F23F0040345E8DD
:1036B0000032002AF7D1AC68002C66D102B0BDE818
:1036C000F04700F0C1BA002AE5DA204651E041692E
:1036D0000289CF06D0F804E048BF06EB020EAEEB3D
:1036E000020211F0010C11BF1146D0E90371C91B90
:1036F000891808EB03077F1A002F2ADDBB4205D982
:10370000E768A1EB0801DC378F423CD9D4F814A05C
:103710001AF0010F1FD12169D0F80C904144B4F880
:103720000880E768A1EB0901A1EB0801A1EB0E01FC
:10373000DC37B9420FDD971BBCF1000F03D10169E3
:10374000A1EB09010F44002F05DB4B46C0F804E054
:1037500004460068A0E7477E617E8F42F9D2921B43
:10376000BCF1000F03D1D0E903135B1A1A44002AFD
:1037700002DAFFF7C3FE6CE71AF0100FA5D0C3689A
:10378000C0F804E0E4E70B46E3E7A36813F4601F26
:10379000C3F3C2462FD100262B68214643F0100305
:1037A00000202B60FFF758FD16B3A36804F1080052
:1037B00013F4601FC3F3C841C3F3C24508D0013DF1
:1037C000EDB201F4FC712943019008F083FB0198EC
:1037D0000321019008F0ECFB01980DB908F0CEFB35
:1037E000A268237E1344120C9BB212041343A360FD
:1037F00002B0BDE8F08704F1080008F079FB00286A
:10380000C9D1C9E74C09002008B5034B996809B133
:10381000FFF722FD08BD00BF4C090020014B98684E
:10382000704700BF4C0900200A4B70B59C68844269
:103830000FD121460120FFF70FFD6668258900F0B2
:1038400000FAAD1BC54221464CBF00200220FFF705
:1038500003FD70BD4C09002009F052BB0A2802D8B4
:103860000130C0B27047242801D80230F9E725287A
:1038700005D0262805D0272818BFFF207047002034
:1038800070470C2070470000C04310B5054A131D57
:1038900053E8003F0340141D44E800310029F6D1ED
:1038A00010BD00BF6009002010B5054A131D53E884
:1038B000003F0343141D44E800310029F6D110BD38
:1038C0006009002007B50C4B10F0020F1B884FF069
:1038D0000200ADF804300BD0FFF7E6FF8DF80400CE
:1038E000064B01A9986A11F0E1FC03B05DF804FBF6
:1038F000FFF7CAFFF4E700BF8A91030060090020C8
:1039000013B50446104B01205B88ADF80430FFF777
:10391000BBFF04F00F0001280CD0022810D010B912
:1039200001238DF80430094B01A9986A11F0D4FCE9
:1039300002B010BD04238DF80430FFF7B5FFF2E7A5
:103940008DF80400EFE700BF8A91030060090020B2
:1039500008B5FFF7A9FFBDE808404FF00060FFF78A
:1039600023BB08B509F0D2FA20B1BDE80840102009
:10397000FFF7EEBF08BD704770477047704770474C
:103980000020704770477047104619467047000086
:10399000014B986A704700BF6009002010B5064CC3
:1039A000A06A11F0BDFD28B9A06A11F0BBFD00F0BE
:1039B000010010BD0120FAE760090020014B986A60
:1039C00011F0B2BD60090020024B5868C0F34020DE
:1039D000704700BF6009002038B5154C0546A37A32
:1039E000834210D0431E042B08D8DFE803F0030DF8
:1039F00011161800A06A11F08DFF20B92846A57293
:103A000000F0A6FE606138BDA06A11F089FFF4E7FE
:103A10000121A06A11F08AFFEFE70321F9E7FFF720
:103A2000D3FF0028EAD0A06A11F086FFE5E700BFC7
:103A30006009002010B504464FF40070FFF724FF22
:103A4000094B986A11F072FD30B154B14FF4007017
:103A5000FFF72AFF002010BD002C0CBF00200C2017
:103A6000F9E72046F7E700BF600900202DE9F04F95
:103A7000046806468846574D89B0002C48D0204639
:103A8000A77901F0A8FD0C3727443C890A38B8F122
:103A9000FF3FA4EB000402D04445A8BF4446B5F85C
:103AA0003890B0EB090713D4002C0EDD6D6B36682F
:103AB0003D44FF2C224629463046A8BFFF2201F094
:103AC00020FB241A36680544F3D109B0BDE8F08F15
:103AD000A9EB0009A145A8BFA146296BC846D6F8A5
:103AE00000A001EB000BB9F1000F0DD04246FF2AF8
:103AF00059465046A8BFFF2201F003FBB8EB00086F
:103B0000DAF800A08344F1D1A4EB09044F44CBE7D9
:103B10000321A86A03AA11F059FCBDF80E70A14652
:103B200002940A3702ACE86209E023601B682B604C
:103B30002368C3F800902368002F1C4611DD2B6812
:103B4000453F002BF1D1012001F0F6FB0346206038
:103B50000028F1D1019002A801F0F0FA019B336036
:103B6000B3E72B1D53E8003F43F008032A1D42E84A
:103B70000034002CF5D14FF00060FFF715FA0298E1
:103B8000BDF8102043790A2143F001034371069BDD
:103B900030606B63059B2A872B638379BDF80E2009
:103BA0000C3303441C711A812A7ADC719A719DF8D6
:103BB0000C20072A0BBF0122AB8C1A7101331FBFE7
:103BC000AB846B8C03F1FF336B8401F08FFA3468A4
:103BD00055E700BF60090020F0B505468779164E0D
:103BE00087B00C37C41901AAD6E90A0111F0F2FB1B
:103BF000238901A90333B06AADF8083011F0ECFB5A
:103C0000019B9DF90E00EB5100F008FD6071B37A45
:103C1000022B02D8E37107B0F0BD9DF81130012BE3
:103C200004D0022B04D02BB90423F3E70323F1E7DC
:103C30000123EFE70023EDE76009002000200021C9
:103C4000704711F0FEBB0000002210B5084C104672
:103C50001146FFF790FEA06A11F00EF8FFF793FEF1
:103C6000204601F06BFABDE810400820FFF70CBEBB
:103C70006009002010B50C4630B9054B586902792F
:103C8000408804FB020010BD00F062FDF7E700BFB2
:103C90006009002010B50C4638B9054B58694188B9
:103CA0000079641AB4FBF0F010BD00F051FDF6E7A6
:103CB0006009002073B50446408900F067FC0D4D93
:103CC000A07B00262872FFF7C9FD6872E07B00F038
:103CD0000F00FFF781FED4E90021A37BA86A0096BC
:103CE00011F04FFE324631463046FFF7BCFA02B0C3
:103CF00070BD00BF60090020F0B5174C85B00746C5
:103D000010462272FFF7AAFD164660720246002096
:103D1000CDE902600B980D4601900A980139009098
:103D2000C9B2A06A11F03CFE06462846A57200F012
:103D30000FFD01256061E57216B1002005B0F0BDF0
:103D40003846FFF7DDFDC0B20028F6D18020FFF72E
:103D5000ABFD2846F2E700BF600900200122094BB5
:103D600010B50C46DA72FFF7CBFD10B10420FFF757
:103D7000EFFD224600210120FFF7FDFDFFF774FA59
:103D800010BD00BF6009002070B50446FFF76DFA52
:103D90000546A179E279114E521A0C310123B06A1D
:103DA000D2B2214411F0F2FAE079A379C01A55FA9F
:103DB00080F524680CB9356170BDA179E2790023E2
:103DC000521A0C31D2B2B06A214411F0DFFAE37911
:103DD000A2799B1A55FA83F5EBE700BF6009002032
:103DE000022370B50E4E0D46F372FFF76BFD0446CD
:103DF00020B1BDE870400420FFF7AABD2846FFF7B8
:103E0000BFFD717A03462246B06A10F061FF064694
:103E10002A4621460120FFF7AEFD002EE9D170BDF4
:103E2000600900202DE9FF411646022300270C46B9
:103E3000144D8046A86AEB72CDE9027710F01CFFA2
:103E4000304602948DF80C70FFF79AFD0090697A65
:103E5000A86A3A4602AB10F049FF054628B1042093
:103E6000FFF776FD04B0BDE8F0814046FFF72AFD7C
:103E7000074633462A4601212046FFF77DFD002FE5
:103E8000F0D0ECE7600900200222084B10B50C4688
:103E9000DA72FFF717FD10B10420FFF759FD224633
:103EA00000210120FFF767FD10BD00BF6009002061
:103EB000014B187B704700BF6009002058B1094AC8
:103EC000134652F8041B51B9074A9B1A9B10074A24
:103ED000013B137370470122044B1A7370478142F0
:103EE000EED2F1E79891030094910300600900205D
:103EF00070B505463E4C8AB020B10023008823608F
:103F0000FFF7DCFF3B4810F054FF3B4E3B4B304685
:103F100033603B4B7360FFF732FD0021304610F0F9
:103F200047FE31A3D3E90023A062C4E90623FFF7CB
:103F300085FED4E90623194310434FF0FF33C4E94B
:103F40000601CDE900014FF0FF32A06A11F0C6F979
:103F500002224FF0FF31A06A11F0C5F90120FFF7EE
:103F600069FD4FF4007300222649A06A11F010FA8F
:103F7000B0F5007F34D100239422CDE907330993B3
:103F80003C23CDE9033205939623A06A03A9069347
:103F900010F06EFF15B3287C00F012FA0546D0B978
:103FA000A06A11F0B4FCFFF7F9FC20B14FF4807067
:103FB0000021FFF735FAFFF701FD20B14FF4006053
:103FC0000021FFF72DFA012010F05EFE0E4A0F4986
:103FD000A06AFFF7D2FC28460AB070BDFF20DBE7DD
:103FE0000725F8E7AFF3008009D501552000000050
:103FF0006009002017C712F3AC0B00202942010012
:10400000A00B0020A00900205938010063390100ED
:10401000024B1B6803B11847704700BF5C090020C2
:1040200010B5084C606810F480700AD0A06A11F0D6
:10403000FBF930B90121A06A11F0F4F980F0010018
:10404000C0B210BD600900200023F0B5012785B083
:10405000194E00938DF80C30C0F340138DF80E30DC
:10406000C0F3001304461546F7728DF804700291F0
:104070008DF80D30FFF744FC20B10420FFF768FCF9
:1040800005B0F0BD2846FFF77BFC717A03466A460F
:10409000B06A10F051FE2A46C4F380110646384635
:1040A000FFF769FCFFF7E0F8230601D5FFF7B8FF3B
:1040B000002EE5D0E1E700BF600900202DE9F043C4
:1040C0004FF0010985B0244D04460E46904600216C
:1040D000102268461F4685F80B90FEF72FFCA86A51
:1040E00010F0CAFD0023E20600968DF80430CDF8EA
:1040F000088005D56B691A888DF80D9042440292AC
:10410000002338468DF80C30C4F340138DF80E3080
:10411000FFF736FC6A460346697AA86A10F00CFE7F
:1041200028B10420FFF714FC05B0BDE8F083204659
:10413000FFF7E6FB3B460121C4F3801205463046FB
:10414000FFF71AFCFFF790F8230601D5FFF768FF89
:10415000002DE9D0E5E700BF60090020044B5A6854
:10416000D20503D50021986A11F05CB9704700BFF1
:1041700060090020002310B5094C0122A06A032128
:10418000E37210F074FD0122A06A114611F026F9C5
:10419000FFF7E4FFBDE810408020FFF775BB00BFCC
:1041A00060090020F8B51F4C636859070AD5042040
:1041B000FFF76AFBE38C0133E384FFF7DBFF0620A4
:1041C000FFF722FB63681A070FD51AF052FD052787
:1041D0000646144D2B681BB9012001F0ADF828608C
:1041E0002D68DDB930461AF04AFD6368DB0618D544
:1041F0001020FFF749FB08F089FE90B11AF039FD55
:104200000546FFF7B7FFE38C06200133E384FFF791
:10421000FBFA2846BDE8F8401AF031BD013FD9D17C
:10422000E0E7F8BD6009002070B5054682B0104691
:10423000194601920093FFF7A5FBDDE900322846FD
:10424000FFF7A2FB3C4CD4E9062300EA020501EA91
:10425000030655EA060313D06A0113D563681B06EB
:1042600027D4364B00222B40002B50D1344A06F085
:1042700020012A400A4327D128463146FFF77EFB1A
:1042800002B070BDA5F10803334346D005F17F436A
:104290003343E6D1E37A022B31D16268238C12F0EA
:1042A000020F14BF04220022013303202384E27290
:1042B0001EE0231D53E8003F23F08003211D41E849
:1042C0000032002AF5D1DBE701220321A06AE37264
:1042D00010F0CDFC0122A06A114611F07FF8FFF723
:1042E0003DFF8020FFF7D0FA0620E38C0133E38402
:1042F000FFF78AFA28463146FFF740FBC0E7042063
:10430000FFF726FB28463146FFF738FBB8E7E37A8C
:10431000012BF4D10520E272EAE7E37A012BEED11A
:104320006268042012F0010F18BF0323628CE3724D
:1043300001326284DCE700BF600900200150010007
:1043400009D501550138C0B203289ABF014B185C4A
:10435000002070478E91030073B50F4B04461B7C01
:104360000E4EFF2B15D10023ADF804000DF1030212
:10437000B06A01A98DF8033011F098FA9DF8035046
:1043800022462946B06A1BF01FFA40EA052002B017
:1043900070BD034B1D78F3E7BC0B002060090020C3
:1043A000CE0B0020054B82B0ADF80400C2B2C0F3C2
:1043B0000721986A02B01BF077BA00BF600900209D
:1043C00073B506461BF0DAFA354D0368354C2B60A1
:1043D0008388FF2EAB804FF00003A37023802B78DF
:1043E00008BF2674304E8DF8013018BF23740DF1CC
:1043F0000303B06A0DF102020DF1010111F08BF817
:104400009DF8013040B90133DBB2012B8DF801304A
:10441000EDD9012002B070BD227CFF2A00D02374A8
:104420008DF805302B709DF802308DF8043001981E
:10443000FFF7B8FFC828C4BFC82363819DF80330C5
:10444000D8BF60818DF804300198FFF7ABFF10F5FD
:10445000FA7FB4BF4FF60C63A081B4F90A00B8BF6D
:10446000A381FFF779FFADF804000198FFF79AFFE9
:104470006081B4F90C00FFF76FFFADF804000198FC
:10448000FFF790FFB4F90A30A081642BA380A8BF86
:10449000642323814FF6FF73E080E3810020B9E7B6
:1044A000CE0B0020BC0B002060090020054B30B172
:1044B000B3F9040011B11B88C01A00B27047B3F9F8
:1044C0000800F7E7BC0B0020044AB2F9063010B12F
:1044D00010881B1A1BB21846704700BFBC0B002087
:1044E00073B506460E4D1AF0C4FBB5F90C30044600
:1044F000B342B8BF33461846B5F90A309842A8BF50
:104500001846FFF729FFADF804000198FFF74AFFAE
:10451000E880204602B0BDE870401AF0B0BB00BF92
:10452000BC0B002073B50646104C1AF0A2FBB4F980
:104530000A300546B342A8BF33461846B4F90C30DA
:104540009842B8BF1846FFF707FFADF8040001987E
:10455000FFF728FF64280346A080A8BF64232846ED
:10456000238102B0BDE870401AF089BBBC0B00206B
:10457000054B28B1B3F904008842A8BF084670472C
:10458000B3F90800F8E700BFBC0B0020F0B5C0F39A
:10459000072585B0FE2DADF8040027D09DF80470E6
:1045A0001AF067FB124C0646E37BAB420ED0114B70
:1045B00002A918689B880290ADF80C300E4B8DF85C
:1045C0000850986A10F0BAFEFF23A373A37BBB4286
:1045D00006D0094B3946986A10F09CFEA773E57324
:1045E000304605B0BDE8F0401AF049BB05B0F0BD5B
:1045F000BC0B0020CE0B0020600900208BB20029EC
:104600004FF00A01B4BF053B05331BB293FBF1F336
:10461000014A108093707047BC0B0020024B9B78BE
:10462000C01A40B2704700BFBC0B0020024B1B8871
:10463000C01A00B2704700BFBC0B00202DE9F04744
:1046400007460E461446DFF8409086B00DF1080884
:10465000A9F1100A3A4680215046CDE900980A4B4C
:104660001CF0D6FE0028F5D1102C254628BF1025B9
:1046700030462A46414624F0CBFA641B2F442E4490
:10468000E8D106B0BDE8F087E40B002030B589B072
:1046900020226946FFF7D2FF6A460C4D04AB144650
:1046A00003CC9C4228606960224605F10805F6D1DA
:1046B000074C08AD1A4603CAAA422060616013463F
:1046C00004F10804F6D109B030BD00BFD40B0020BE
:1046D000E40B002010B588B06946202001F09EF957
:1046E000044630B96846FFF7D1FF0122024B83F838
:1046F0002020204608B010BDD40B002070B5134B0D
:10470000054693F820300C468CB00BB9FFF7E2FF5A
:104710000023CDE90033CDE9023354B91C222146F0
:1047200005A80494FEF70AF904A8FFF7AFFF0CB040
:1047300070BD102C264628BF1026294632466846F2
:10474000FFF77CFF3544A41BE7E700BFD40B002034
:10475000052808BF03200622024B013802FB003067
:10476000704700BFB89103000021034B2822C3E922
:1047700000110248FEF7E2B8F80B0020000C002000
:10478000094A5168C84390FAA0F048B1B0FA80F0E5
:10479000042805DC012383400B43536040B270477B
:1047A0004FF0FF30704700BFF80B002013B50190A9
:1047B000FFF7E6FF0446054B00B203EBC00001998A
:1047C00000F012FA204602B010BD00BF000C00201D
:1047D00010B5C4B2042C14D80A4B03EBC00004304B
:1047E00050E8003F0B4340E80032002AF8D1012294
:1047F0000549A24051E8003F134341E8003000283A
:10480000F8D110BD000C0020F80B0020F7B50125F1
:104810000826042719491A4A1A4C086810B3137855
:1048200005FA03F318421FD0DB4351E8000F18408C
:1048300041E8000CBCF1000FF7D1137816FB0373AD
:10484000234453E8000F43E800CEBEF1000FF8D137
:10485000019048B110780C4901AA04EBC00000F0A7
:104860000FFA012003B0F0BD1378486883422EBFD1
:1048700000230133DBB21370CFE700BFF80B002039
:10488000280C0020000C00207856341210B5044685
:104890001AF0EFF9074B1B684BB1DB681B1B002BB1
:1048A000CCBF002401241AF0EAF9204610BD1C46B2
:1048B000F9E700BF300C002038B54FF0FF34054653
:1048C0001AF0D7F9084B1A681AB91AF0D8F9204625
:1048D00038BDD2E903310B445B1B23F000439C42FB
:1048E00028BF1C465268EFE7300C00202DE9F34743
:1048F0000C9F0D469846114606469DF82C9008B12F
:1049000003687BB937B12846B84740F2034002B08C
:10491000BDE8F0870029F8D0002DF6DB084601F04D
:104920005BF8F2E701921AF0A4F98246484600F0DB
:10493000ABFA044650461AF0A2F9019964B91FB1C6
:104940002846B8471A20E2E70029FBD0002DF9DB02
:10495000084601F041F8F5E7A56000250A9B84F8B8
:104960001890DFF87090C4E90787616126602361C1
:104970006560D9F80030984708EB00061AF079F91D
:1049800007461248E66003681A4632B1D168891BAF
:10499000002913DBD1688E4210D09DB963600C4BA7
:1049A00004601C682CB1D9F800309847FFF784FFE9
:1049B000A04738461AF063F90020A8E75168154669
:1049C0000A46E2E76A6862606C60F2E7300C002039
:1049D000440C00203C0C002010B5044678B1036A5A
:1049E00041696BB1806898470023207E636111287C
:1049F000636004D8214600F069FA1223237610BDC3
:104A00000029F1D08368002BEEDB084600F0E4FFBC
:104A1000EAE700002DE9F74F0C4690461D4600904E
:104A20001AF027F900270646DFF88490DFF884B0F3
:104A3000D9F800A0BAF1000F05D1304603B0BDE8A7
:104A4000F04F1AF01CB9DAF80020009B9A421FD1EF
:104A500034B1DAF80820216822F000428A4217D1E6
:104A600085B9DAF80420BFB9104BC9F800201A68DC
:104A7000019292B1DBF800108847FFF71DFF019A01
:104A800090470AE04146DAF81400A8470028E8D029
:104A90005746DAF804A0CDE77A60DAF804205046E9
:104AA0000192FFF799FF019A9246C3E7440C002058
:104AB000300C00203C0C0020014B1860704700BFF8
:104AC000440C002070B50B4B04460E461546197871
:104AD000094A0A4800F047FF0023094A24211360CD
:104AE000084A07201660084A15602246BDE8704053
:104AF00000F04CB9990C0020D0910300340C002038
:104B0000300C00203C0C0020400C0020002307B596
:104B10001A46019101A9FFF77DFF03B05DF804FB80
:104B20001FB5002402949DF81C400194069C00943B
:104B3000FFF7DCFE04B010BD13B507240194049CFC
:104B40000094FFF7EDFF02B010BD000030B5044641
:104B50001846002387B00593094B0D461B6813B90F
:104B6000212007B030BD05A9039298470028F7D14E
:104B7000009029462046059B039AFFF7DDFFF0E7EA
:104B8000400C00201FB5079C029407240194069C4A
:104B90000094FFF7ABFE04B010BD002307B50093EF
:104BA000FFF7CAFF03B05DF804FB0000F8B5054647
:104BB00010200F46164600F0E7FE0A4B0446187810
:104BC00018B11022214600F0D1FE44B1012300208B
:104BD000E3602B68C4E9017623602C60F8BD1A20DD
:104BE000FCE700BF340C002003680B6001607047D5
:104BF0002DE9F04706460F46904600250468DFF889
:104C000044A00CB9BDE8F087D4E90093BB4212D1AF
:104C1000A36843450FD18DB9C6F80090E368DB0760
:104C200008D59AF8000010B1214600F0A0FE2046F9
:104C300000F0D2FE2C4625464C46E2E7C5F800902F
:104C4000ECE700BF340C0020F8B500231A461946E3
:104C500005460468FFF7DEFE084E0CB92C60F8BD6F
:104C6000E3682768DB0707D5307810B1214600F0EC
:104C70007EFE204600F0B0FE3C46EEE7340C0020FD
:104C80002DE9F8430E461746054610B90020BDE849
:104C9000F8830468002CF9D0D4E900893B463246F9
:104CA0002946A068C8470028F1D14446F2E7000031
:104CB0002DE9F843254FDFF8A480254D386038688A
:104CC000FFF7E4FD30B9234B1B689847BDE8F84374
:104CD000FFF7F2BD19F0CDFFD8F80040064674B1D9
:104CE0006368C8F800301C4BD3F80090B9F1000F8E
:104CF00005D0184B1B689847FFF7DEFDC8473046C4
:104D000019F0BDFF2C60002CD9D0A36833F000430C
:104D100005D12868FFF760FE00232B60CFE72368EA
:104D2000002BF6D018680028F3D0A26832F00043B8
:104D3000EFD0D0E90069636921688068C84700281E
:104D4000E7D1002EE5D03046EFE700BF380C002059
:104D50002C0C00203C0C0020440C0020300C0020C7
:104D60002420704738B505460C4619F082FF064BE3
:104D70001B683BB1DA692A601B692360BDE83840D3
:104D800019F07DBF2B60F8E72C0C00202DE9F74FC0
:104D90004FF6FC7700241646DFF884900331DFF8E5
:104DA00084B009EB00150F404FEA001ADBF8003021
:104DB000804629F80A7002FB07F06A80EC60984789
:104DC00017FB06F39BB268602B8110B30093124A65
:104DD0000346124852F828209BF80410404400F083
:104DE000C3FD21462A896868FDF7A8FD21462346B0
:104DF0009E4206DC0020D144A9F8026003B0BDE861
:104E0000F08F6A68E868541850500133EC603944F8
:104E1000EEE71A20F2E700BFDC920300540C0020FA
:104E2000D4070020480C002070B50B4E044606EB5A
:104E30000015696839B1094B2A89185C00F095FDA5
:104E4000686800F0C9FD06EB04101022BDE8704050
:104E50000021FDF773BD00BFD4070020540C0020D3
:104E6000044B19601A719860020100210248FDF795
:104E700065BD00BF480C0020D4070020014B185C22
:104E8000704700BF540C002070B50A4C060104EBBB
:104E90000013DD68084B185C18B12946A25B00F0CE
:104EA00065FD2DB12B683444E3606388013B63806A
:104EB000284670BDD4070020540C0020024B03EBA1
:104EC00000108078704700BFD4070020094B10B451
:104ED00003EB00135A88DC6801320C60D9605A80F9
:104EE000054B185C18B15DF8044B00F040BD5DF84F
:104EF000044B7047D4070020540C0020044A0101E1
:104F000002EB0013505A10B11B89B3FBF0F070474D
:104F1000D407002037B50024164B174D1C70174BD3
:104F200020461C60164B2C601C706C60AC60FFF758
:104F3000E5FF80B2A0F10E036B80A0F114030130F5
:104F400068812046EB80FFF799FF0E4C01460190E7
:104F50000D4A601C00F007FD204601990B4A00F045
:104F600002FD0B4A0199A01C03B0BDE8304000F0DF
:104F7000FABC00BF6C0C00206E0C0020680C0020F6
:104F80007D0C00207A0C0020249303002D93030055
:104F90003793030038B5044630B319F06AFE6379DD
:104FA00012496FF3820363712379054603F003030B
:104FB00031F823200020013A21F823202146FFF771
:104FC00085FF0B4B1A7822B92846BDE8384019F006
:104FD00056BE00221A70074B1C68002CF4D02046E5
:104FE000636898472468F8E738BD00BF6E0C00205E
:104FF0006C0C0020680C00202DE9F74F1F469DF82F
:105000003030894683460193002851D0002969D069
:105010000D68002D68D04FF0000AA979EC79641A68
:10502000E4B2BC4207D30C3139445E462944E41B48
:105030000BEB020838E02868AA463F1B002837D04F
:105040000546EAE73319984538BFA8EB0604304611
:10505000224623F0DDFD019B2644002B3FD017F0B4
:10506000FF0095F806C0E4B225D16444AC71EA793A
:10507000AB799A4233D1D9F800302F68AB4208BFE0
:10508000C9F80070BAF1000F01D0CAF800702846C4
:10509000FFF780FF57B1BA79FC7902F10C013D4668
:1050A00039440027A41AE4B2B045CBD8A6EB0B00D4
:1050B00003B0BDE8F08FEA790119A2EB0C02D2B27D
:1050C000914208DA0CF10C0CAC44121A121B614428
:1050D000604423F0AAFDEA79141BEC71C7E7AA46E5
:1050E0002F68D7E70846E3E72846E1E7C279C2F12F
:1050F0004503DBB2994228BF19460A44C2710846EB
:10510000704738B50546C079C0F14504E4B2944211
:1051100088BFD4B20C302246284423F079FDEB79C5
:1051200020462344EB7138BD1FB503910021009147
:1051300003A9FFF761FF05B05DF804FB38B504462D
:10514000206800B938BD0568FFF724FF2560F7E740
:10515000034610B501F0FC0103B910BD1A7902F045
:1051600003020A431A711A1A544254415A7964F3D9
:1051700000025A711B68EFE710B580B10168026840
:105180000AB113680BB9002304E05C79E40704D585
:10519000002414600360084610BD0360EFE7014679
:1051A000F9E700002DE9F04F054687B0680748BFD2
:1051B00005F0F70502920F4619F05BFD594E05F018
:1051C000030406EB840336F824205B8881469A4268
:1051D0004FEA840839D20020FFF756FE824680B39A
:1051E00036F82430013326F82430484619F047FDBC
:1051F000BAF1000F70D1290718D515F0F00301930B
:1052000014D0B04419F035FDB8F8023036F82490C7
:10521000DFF8208199452CBF00230123D14600935C
:1052200019F02DFD404B1B78994511D33F4B185D6C
:1052300018B14522514600F099FB504607B0BDE831
:10524000F08F01223A4B1A70CFE74FF0000ACCE7FB
:1052500098F80030019A1A4204D0D8F804B0DBF86C
:10526000003023B909F1010908F10808DAE7002044
:1052700005935A79D20749D51A79510746D500992D
:1052800000293FD000B105935846FFF775FF059000
:1052900005A8FFF753FF19F0ECFC06EB84035B88CD
:1052A000024636F82400984234BF012300230093BD
:1052B0000BD200200392FFF7E7FD039A059058B345
:1052C00036F82430013326F82430104619F0D7FC84
:1052D000059B002BC3D09A460023CAF80430CAF8B5
:1052E0000030CAF808309AF805308AF8067043F0A2
:1052F00004038AF80530029B8AF804501F448AF898
:10530000077093E702F003029442BBD09B461B68F0
:105310000120002BADD1A2E74FF00101044B197021
:10532000D3E700BF6E0C00207D0C00207A0C00201B
:105330006C0C0020800C002000221146FFF732BFC9
:1053400038B5036804460D469BB11879FFF7F4FFA2
:1053500088B12368427903605B79C3F3400363F348
:10536000410245235D1B4271C3718571206000209D
:1053700038BD0120EAE71920FAE75318452B02DC73
:10538000C9B2FFF70FBF00207047F7B500260546EA
:105390000F4601960DB9019C09E0002238461146DE
:1053A000FFF700FF044628B901A8FFF7C7FE204613
:1053B00003B0F0BDAB798371EA79C2716979427942
:1053C00061F3000242716A794179C2F3400262F3EB
:1053D00041014171EA7903F10C00D21A2918D2B2C5
:1053E000204423F015FC019B03B9019406B13460FD
:1053F00026462D68CEE7002348B1C279817900683E
:10540000521A53FA82F310B14279D207F4D51846F2
:10541000704770B50D460446E8B186798E4203D3D5
:10542000751A8571012070BDC27906F145039B1A7A
:10543000DBB299420FD806F10C010144921BA81B64
:105440000844D2B223F0F1FB0023E179A3710D44AB
:10545000AD1BE571E6E70020E5E738B504460D46EB
:10546000FFF7D7FF98B984B12079FFF765FF58B1EE
:1054700063794279C3F3400363F3410245235D1B23
:1054800004604271C371857138BD0120EDE720468B
:10549000FAE770B50C461646054618B3006808B31F
:1054A00009B9002070BD0AB145291DD8E1B2FFF746
:1054B000B0FF0028F5D11EB92B689A799E71A41A05
:1054C000442C07D8002CECD02846E1B2BDE870404F
:1054D000FFF736BF45212846FFF732FF0028E1D10C
:1054E000453CEDE72220DDE72120DBE72DE9F8430D
:1054F00090F8078090F806900446A8EB0907FFB2E1
:10550000B9420D4602D30020BDE8F8830079FFF7C9
:1055100013FF06460028F6D0A17980790C317F1B55
:1055200029440C30BAB22144304423F071FBF379A2
:1055300001201F44F771E179236889444D44A5EBAC
:105540000805E57133602660DEE738B50C46A0B18A
:105550009CB1A579E279C379521BC3F14503D2B25C
:10556000DBB2934209D305F10C012144FFF7C9FDD9
:105570002046FFF70FFD012038BD0020FCE7F8B5FD
:10558000076806460D463C46002305B12CB90BB111
:1055900000221A6034603846F8BDE379A2799B1A7C
:1055A000DBB2AB4207D8E379A2799B1ADBB2ED1AE2
:1055B00023462468E9E72046E9B2FFF797FF002871
:1055C000F1D10746E7E70346006818B102681A60A0
:1055D000002303607047002308B918467047C2795A
:1055E00081790068521A53FA82F3F5E72DE9F84FF2
:1055F000894617468246FFF7EEFF04464846FFF706
:10560000EAFFBC4201D3B84202D2844207D1274606
:105610000024A346A04626462FB9384601E036D3DB
:105620000120BDE8F88F5EB99AF806809AF8076005
:10563000A6EB080608F10C08D044DAF800A0F6B290
:10564000BBF1000F0AD199F8064099F807502D1BBD
:105650000C344C44D9F800905FFA85FB5E45354622
:1056600028BF5D46BD4228BF3D4621462A464046EA
:1056700023F0BEFA0028D4D1A8442C447F1BEDB2FD
:10568000761BABEB0505F6B25FFA85FBC4E74FF07E
:10569000FF30C6E703680BB9016070471A461B6804
:1056A000002BFBD1116070472DE9F8430E461446DC
:1056B000074628B331B302B3034699461B68002B53
:1056C000FBD1A0464D46424631462846FFF719FD1C
:1056D000A945A8EB0008064418BFC9F80050B8F166
:1056E000000F08D00022B9793879FFF75BFDA94691
:1056F00005460028E7D1A4EB08042046BDE8F8835E
:105700000446FAE70C46F8E737B51546C9B2002259
:105710001C46FFF747FD019040B122462946FFF79E
:10572000C3FF844202D901A8FFF708FD019803B026
:1057300030BD036803B10B600160704739B10B469F
:105740001A461B68002BFBD1036813600160704789
:1057500070B5046806460D4644B12046FFF73BFF8E
:10576000A84211D8236813B9E379A37170BD20460C
:105770003360FFF70FFC3468F4E7ED1A2368204626
:105780003360FFF707FC3468002DEFD0A179E3798F
:105790005B1ADBB2AB42F0D92944A171E6E7F8B558
:1057A000066805460C4646B13046FFF714FFA04296
:1057B0001DD8336813B9F379B371F8BD30462B6047
:1057C000FFF7E8FB2E68F4E7064638460768002F27
:1057D000FAD1C1798379CB1ADBB2A34202D9091B72
:1057E000C171EAE7E41AFFF7D5FB3EB13760002C40
:1057F000E3D028680028E0D00026E7E72E60F6E72F
:105800002DE9F04104460F464FF00008BC4201D19B
:10581000BDE8F081A179E5796D1AEDB2C5F14506D3
:10582000B6B20EB92468F1E749B10C312A462144D9
:1058300004F10C0023F0F9F9E57184F8068023687F
:10584000BB42EFD05A79D207ECD49979DD79A079AF
:105850006D1AEDB2B54228BF3546E2790C301044DE
:105860000C312A461944204423F0D2F9E379206808
:1058700053FA85F3E3718279761BC37952FA85F581
:10588000EDB2AB42B6B2857103D103682360FFF776
:1058900081FB002ED3D1C5E738B50C46016809B9A4
:1058A000046038BD0D4609680029FBD1236823B187
:1058B0002046FFF7A5FF2C60F3E721462846FFF7B7
:1058C00044FE0028EDD1F6E710B5044619F0D1F9F1
:1058D000034B1A681C602260BDE8104019F0CFB974
:1058E000680C002010B5064B00F0F0001A78541C2C
:1058F0001C70044B03F8320003EBC203596010BD67
:105900007D0C0020800C002038B505460C4604B9FB
:1059100038BD013C55F834305B68002BF7D0984710
:10592000F5E72DE9F0410446002654F836302BB94E
:1059300004F10408B34203D100250FE00136F4E777
:1059400054F833205F1C12685AB158F8330090475E
:10595000054630B139462046FFF7D6FF2846BDE858
:10596000F0813B46E6E770477047704770477047E5
:10597000024B034A19780348FFF7F5BF980C002043
:1059800044930300990C002013B5033020F0030268
:105990001046019221F05CFE0C4B04461878019AE7
:1059A00018B12146FFF7E2FF019A094B187820B1A0
:1059B00021460192FFF7DAFF019A1CB1002120462F
:1059C000FCF7BCFF204602B010BD00BF980C0020C1
:1059D000990C0020FFF7D8BF10B5044628B1054B3D
:1059E000187810B12146FFF7C2FF2046BDE81040ED
:1059F00021F04DBE980C002010B5074C23782BB930
:105A00001AF0A8FF20B90123237010BD0020FCE785
:105A100040F20740F9E700BF9A0C002038B50B4B65
:105A200004461B780D464BB1214628461AF0D0FD9E
:105A3000002840F2074008BF002038BD044905484F
:105A4000FFF7DAFF0028EFD0F7E700BF9A0C00203D
:105A5000EFBEADDEBEBAFECA10B51FF039FF80B989
:105A60003821094B93F822201B682433904201DB34
:105A7000002010BD01FB00F41C59E40601D40130E4
:105A8000F4E70120F5E700BF9C0C0020012807D1B6
:105A9000487900F0C000A0F14003584258417047D7
:105AA0000020704701490248FFF79EB8EC0400202F
:105AB000140D00204FF4C802084B094983F8250053
:105AC000C3E90512A2F5CA02DA6108225A6000226F
:105AD00083F823200F2283F8242070479C0C002099
:105AE0001000280013B5114C94F82330DBB1626824
:105AF00012F0020217D104F10800019201F07CFDBE
:105B0000FFF7AAFF019A70B14EF6602194F8243095
:105B100007484B434FF48271FFF718F818B96368D0
:105B200043F00203636002B010BD00BF9C0C002074
:105B3000140D002022F00042052A10B50DD0B2F558
:105B4000827F13D0032A06D1114A536823F0080339
:105B500053601FF0C5FE002010BD0D4A1B88118C3C
:105B600000209942F8D110840120F5E7084B5A68CB
:105B700093F8234022F00202012C5A60F4D10EF077
:105B80005FFCFFF7AFFF20461FF0F2FEECE700BF1F
:105B90009C0C0020084A536850B143F01403536032
:105BA0000B680220C2F80E308B8853821FF0E0BED3
:105BB00023F01403536070479C0C00200448436892
:105BC0000E3013F0040F034B08BF1846704700BF98
:105BD0009C0C0020E80C0020024B5868C0F38000A9
:105BE000704700BF9C0C00207047002070470000E9
:105BF00013B50190FFF7C8FE054B04461878019ACB
:105C000010B12146FFF7B2FE204602B010BD00BF22
:105C1000180D0020F7B504460C2016460F461D4609
:105C2000FFF7E6FF024620B908A8FFF787FA03B09E
:105C3000F0BD204650F80C3B40F2035193F856302B
:105C400057801370089B16719360044BD5800193A5
:105C500000230093FEF796FFE9E700BF21B10100A2
:105C6000F8B50446082016460F461D46FFF7C0FF4C
:105C7000024670B1204650F80C3B40F2025193F8B6
:105C80005630167113705780D580BDE8F840FEF786
:105C900084BFF8BD38B5044604200D46FFF7A8FFC1
:105CA000024660B1204650F80C3B40F2055193F893
:105CB000563055801370BDE83840FEF76EBF38BDD2
:105CC0002DE9F34100241D469DF820300E46804604
:105CD00090F83810174680F8384033B1324607F054
:105CE0005BFB204602B0BDE8F0810C29ADF8063020
:105CF00008D12A4639460DF1060307F08BFBBDF8A3
:105D00000600EFE708291FD10221092007F0D1FA88
:105D100004460028E5D002228DF8046001A9360A65
:105D20008DF80560FFF7C0FC2A4639462046FFF78C
:105D3000BBFCA379AA1C2344214640465A7307F0B2
:105D4000F5FAADF80650DAE72A4639460DF10603B2
:105D500007F047FBD3E7F0B5002485B017460122D2
:105D600006460D46ADF80E4008F071F88DF80D00AE
:105D7000A8BB284607F05FFD10B1284607F0A0FF3A
:105D8000284607F0D1FF40B13B462946304696F8F9
:105D90003820FFF765FF05B0F0BD0DF10D03294672
:105DA00030460DF10E0208F0E9F89DF80D305BB9B0
:105DB000BDF80E20BA4235BF0723D21B8DF80D3037
:105DC000C01928BFADF80E209DF80D300246009393
:105DD00029463046BDF80E30FFF772FFDBE720465C
:105DE000F2E700232DE9F34105460E4614460193E0
:105DF00000F1600702BB83691A071AD4A04638462F
:105E0000FFF7BAF90190B8B1837903F10C020244AB
:105E1000B2F801600533B2F80320314683710346BE
:105E2000284608F0D9F8CDF804800028E7D00446C9
:105E300002E023F00803836101A8FFF77FF93846E9
:105E4000FFF77CF9002385F838307CB12346182110
:105E50003246284604F5885407F09EFAA1B2284637
:105E6000FFF718FF002002B0BDE8F081284607F0D8
:105E700023FB2146F3E72DE9F84F0E4691469B465A
:105E800005469DF828A010B1037D012B61D028465E
:105E900007F017FC304607F037FF002231468046F6
:105EA000284607F0A4FF0746304608F021FA42F6DC
:105EB000052398421CD118F0300F26D1BAF1000FFB
:105EC00034D018F0200F40D0BA0740D56B8F002B8C
:105ED00039D15B464A463146284607F013FB044653
:105EE000F0B940F20A4128466E8707F0F8FB17E048
:105EF000284607F0BFFC0028DDD0284607F0CFFC7D
:105F00000028D8D041F212140AE0B907D6D03146A1
:105F1000284608F006F80028D0D000F58854A4B22E
:105F2000284607F0D3FB2046BDE8F88F18F0100F85
:105F30000BD0FB070BD55B464A463146284607F097
:105F4000C9FA0446ECE70524EAE72124E8E702243D
:105F5000E6E70724E7E737B504460D46019207F068
:105F60006AFC50B92A462146019B08F035F810B169
:105F700000F5885080B203B030BD41F20310FAE75B
:105F8000F7B504460C2016460F461D46FFF730FEB7
:105F9000024620B908A8FFF7D1F803B0F0BD2046AB
:105FA00050F80C3B40F2015193F856305780137073
:105FB000089B16719360044BD580019300230093D6
:105FC000FEF7E0FDE9E700BF21B101002DE9F04156
:105FD00004460A2016460F461D46BDF81880FFF7F6
:105FE00007FE024680B1204650F80C3B40F20451B7
:105FF00093F85630167113705780D580A2F8088038
:10600000BDE8F041FEF7C9BDBDE8F08170B50D46B1
:10601000094E0446318807F0D3F93388A188AB4292
:1060200028BF2B46172BB8BF17232046A380BDE8F7
:10603000704007F02DBB00BF380500202DE9F04F60
:106040002DED028B89B080461846149B92468946F6
:10605000019309B191420AD901234A4610214046D1
:1060600009B0BDEC028BBDE8F04F07F095B901997E
:1060700008F018FA08EE100A08F07BFA08B91023A5
:10608000EBE70221112007F014F94C464FF0FF35E1
:10609000B8F804B00690ABF10603ABF102069BB270
:1060A000B6B2029318EE102A5146204608F046F880
:1060B000074680B3019B51461A8808F08FF80446C2
:1060C000384607F019FE40B94FF6FF739C4201D0E5
:1060D0000134A4B2A245E5D21DE04FF000033946D9
:1060E000ADF816300DF116020DF11503404607F01C
:1060F00045FFBDF81620ABF1050191420299034618
:10610000D8BF0A46002DADF8162014DB954202D107
:10611000EA1CB24213DB6B1C2FD106A8FFF70EF866
:106120000A234A461021404607F036F909B0BDEC73
:10613000028BBDE8F08F351F9542A8BF1546220A95
:106140008DF81C708DF81F2007A9042206983F0ABD
:1061500003938DF81D708DF81E40FFF7A5FA039B81
:106160002A4619460698FFF79FFA4FF6FF73043E3A
:10617000761B9C42B6B2ABD1CDE7069904358B793C
:1061800040460B445D7307F0D1F8CFE72DE9F04F9F
:106190002DED028B87B0064691469A468846DDF87B
:1061A00048B009B191420AD901234246082130463C
:1061B00007B0BDEC028BBDE8F04F07F0EDB8184614
:1061C000594608F06FF9022108EE100A092007F07D
:1061D00070F8B3880590023B9BB21F4640464FF0D3
:1061E000FF35009318EE102A494607F0A7FF044632
:1061F00000284ED007F080FD00286ED001222146F5
:10620000304607F024FE8DF80F0050B105A8FEF7C8
:1062100095FF22469DF80F300821304607F0BCF864
:1062200018E05946504607F010FB10B1204607F021
:1062300047FD204607F078FD88B1002D29DC05A830
:10624000FEF77CFF082200232146304686F83820DE
:10625000FFF706FD07B0BDEC028BBDE8F08F2146CD
:10626000ADF812000DF10F030DF11202304607F0E8
:1062700085FEBDF81220009903468A4228BF0A46CF
:10628000002DADF812200CDBAA4202D16A1CBA42E2
:106290000BDB6B1C26D105A8FEF750FF0A234246F4
:1062A000BAE7BD1E9542A8BF1546220A8DF81120F7
:1062B00004A90222059801938DF81040FFF7F4F924
:1062C000019B2A4619460598FFF7EEF94FF6FF7332
:1062D000023F7F1B9C42BFB2DBD0601C80B2814575
:1062E00080D2D6E7059902358B7930460B445D7331
:1062F00007F01CF8AEE72DE9F04F89B006460F46CF
:10630000009209B1914208D901233A46042130464E
:1063100009B0BDE8F04F07F03FB84FF6FF78022113
:10632000052006F0C6FF3D46C246B4880290023CF6
:10633000A4B22946304607F0E2FF504581464DD0D1
:106340004FF400622946304607F081FD002840D115
:10635000484608F059F9002814BF4FF0100B4FF0D1
:10636000020BD0451ED0484608F04EF90190404639
:1063700008F04AF9019A824203D10BF10102A242CC
:1063800011DB029C4046A1790C310C4408F03CF929
:10639000002814BF0223012321463046637006F013
:1063A000D7FF28E0C8462A0A0DF10E0148468DF8AD
:1063B0000D208DF80C50023C08F0F8F802980BF113
:1063C000020203A9FFF770F9A4EB0B045545A4B230
:1063D000D7D0009B0135ADB2AB42AAD24FF6FF73C6
:1063E0009845CED102A8FEF7A9FE0A233A46042119
:1063F000304606F0D1FF09B0BDE8F08F2DE9F04F2F
:106400004FF0000889B0064691469A460F46BDF8FF
:106410004CB0ADF80C80ADF80E80002951D09142FF
:106420004FD80121072006F050FF0546002850D024
:106430003B460A244B45019306D22946B08806F014
:106440001BFF0328019B09D8B8F1000F1ED0294675
:10645000304606F07DFF09B0BDE8F08FADF8103092
:10646000129B3046069302AA0DF10A0304A9ADF867
:106470001290ADF814A0ADF81CB007F0DBFE0A28AE
:106480000446E1D0BDF8083020B11F46284606F08A
:1064900043FF17E0ADF80C30BDF80A3003AAADF8A1
:1064A0000E3029460423B08806F0F1FE4FF6FF7245
:1064B000BDF80A304FF0010893421CBF01339BB274
:1064C000B8E7012423463A460621304606F064FF29
:1064D000C1E71124F6E70A23002280F83830FFF7DD
:1064E0003ABC0C2380F83830FFF735BC00232DE987
:1064F000F347054688461746B0F804A08DF80130EA
:10650000019312B112F001060ED0042300248DF87D
:10651000013001A8FEF712FE22460E2128469DF802
:10652000013006F039FF53E03346324601210F2097
:1065300006F0D3FE044618B911238DF80130E8E7C0
:1065400006F098FEC1460AF1FF3A019039F8024B75
:1065500001222146284607F07AFC8DF80100002828
:10656000D7D1204607F067F910B1204607F0A8FB05
:10657000204607F0D9FB08B18023DEE721460DF164
:10658000010328460DF1020207F0F8FC9DF80130E6
:106590000146002BBDD1BDF80220AAEB06039A42AA
:1065A000C8BFADF80230BDF802200198FFF77CF8B3
:1065B000BDF80230984204D31E4408EB0703994506
:1065C000C4D1019806F052FE0146284606F0C0FEEE
:1065D00002B0BDE8F087F0B5122785B0039280F8CD
:1065E0003870022205460E4607F031FC044670B1B1
:1065F00003A8FEF7A3FD002385F83830002C38D01F
:10660000234632461221284606F0C6FE0FE0039AC2
:10661000304693790333937107F086FB48B1039BAF
:106620003A460093314623462846FFF7F3FA05B071
:10663000F0BD42F6293007F0BCFDB04211D10398FD
:1066400008B90D24D4E7FEF7C6FF80B20128F8D1BF
:10665000039B28469A791344197B07F046F90446B0
:10666000C6E7224631462846039B07F0B5FC0446A0
:10667000C1E7284606F0E7FED9E72DE9FF4103927E
:10668000042204460D4607F0E2FB074628B103A8A2
:10669000FEF754FD04B0BDE8F0814FF05208039AB4
:1066A000284693790333937184F8388007F03CFBD4
:1066B000064640B1039B4246009329463B4620468E
:1066C000FFF7A8FAE6E742F6293007F072FDA84284
:1066D000039B0CD19A7920461344197B07F005F9E6
:1066E00003A8FEF72BFD002384F83830D2E73246AA
:1066F0002946204607F070FCF5E7F0B58B7985B0A8
:106700000C3303911944B1F8016005463046B1F8E5
:10671000037007F0F1FA002854D0022231462846CF
:1067200007F095FB044600BB304607F0FDFA04462F
:1067300070B11622039B85F83820997928460531D7
:106740009971009331463B46FFF764FA05B0F0BDFE
:10675000FEF7B4FBDDF80CC023466246591CCAB9EB
:10676000DBB20633984218DC092403A8FEF7E6FCE6
:1067700005F16000FEF7E2FC23463246162128466A
:1067800006F00AFE092CE1D141F209112846FFF773
:1067900081FADBE70B461268E0E701216046FEF76D
:1067A000F4FD01460028DFD005F16000FEF772FF1E
:1067B000039B31469A79284605329A713A4606F08B
:1067C00050FEC3E70124D0E713B5044641B9603059
:1067D000FEF7B4FC204602B0BDE8104006F06CBEE7
:1067E0001821826980F8381012F0080207D00023BF
:1067F0000A4600931946FFF70DFA02B010BD114684
:1068000002B0BDE81040FFF7ECBA7FB5458F0446F3
:106810002DB342F6052007F0CCFCA84207D1002199
:10682000204607F043F8A36923F00103A361002683
:1068300040F20A41204606F058FF29460DF10E02AB
:106840002046ADF80E6007F0D2FABDF80E200346E0
:106850000092294602222046FFF7B8FB668704B063
:1068600070BD2DE9F04105461F460E46144606F060
:1068700028FF2B7D012B64D095F83830182B2ED0B3
:10688000AB691B0715D595F8381016292ED008D8F6
:10689000122915D00224284606F018FF2046BDE82C
:1068A000F08118291BD05229F4D1002485F83840F2
:1068B000F1E7304607F038FA0028E4D12124EAE76E
:1068C000002785F8387034B123463246284606F052
:1068D00063FD3C46DFE7284606F0B5FDDBE72246D0
:1068E00031462846FFF77DFA0446D4E74FF000080A
:1068F00085F8388034B123463246284606F04CFDF0
:106900004446C8E705211720BDF81C30069A06F05A
:10691000E4FC30B9112332461221284606F03CFD32
:10692000B9E706F0A7FCAB693A4643F00803AB6150
:1069300083793146053383710346284606F091FD7D
:10694000A9E70724A7E77FB50123ADF80C304FF680
:10695000FF7305460E460446ADF80E3018B92046C2
:1069600006F05CFF0446A4B1204606F088FF02460C
:1069700068B93146204607F03AFA022807D10123C8
:10698000314600932046042303AAFFF774FA002D32
:10699000E5D004B070BD2DE9F041054688B042F65F
:1069A000052007F006FC064604A807F0A1F810220F
:1069B00005F13D010DEB020022F01AF950B1012161
:1069C000284606F073FF284607F0ABFCAB6923F0BE
:1069D0000103AB6142F60303022003A9ADF80C30BA
:1069E00007F060FD012407464FF0000820463A46B4
:1069F0004FF6FF7107F0A2FB044610B908B0BDE8DE
:106A0000F08107F079F90134A4B20028EED0A64253
:106A100003D131462846FFF796FF214628460DF15F
:106A20000E02ADF80E8007F0E2F90028DED0BDF8C6
:106A30000E3001220093214603462846FFF7C6FA8E
:106A4000D4E700002DE9F04385B00446039106F039
:106A500038FE039883790C33C75CC518FEF7BBFD7D
:106A60001E2F804615D8012F52D9BB1E1C2B4FD884
:106A7000DFE803F0134E134E134E134E134E134E16
:106A8000134E134E134E4E4E134E134E4E4E4E4E4D
:106A9000130007F07F03522B3AD1DDF80C904846E3
:106AA00099F80660FEF797FD0C3619F80620431E8C
:106AB0001E2A9BB215D8012A17D9023A1C2A14D8CB
:106AC000DFE802F0401342133D1338134013421322
:106AD000441338135A1313135E1360131313131351
:106AE0006200522A48D0D22A48D017F001020AD1B7
:106AF00007F07F03522B06D01E2F04D00423394603
:106B0000204606F049FC03A8FEF718FB21260AE000
:106B1000062300223946204606F03EFC03A8FEF775
:106B20000DFB41F20616204606F0D0FD304605B0BA
:106B3000BDE8F083062B0DD0142BD6D10AE0052B2F
:106B4000D3D907E0022BF8E7042BF6E7032BCCD9C7
:106B5000D907CAD4022F1FFA88F900F0AB80236846
:106B60009E6816F4004640F0068104F16000FEF7CE
:106B7000E5FA039B2366D6E7012BE1E70D2BDFE760
:106B8000032BDDE7012BD8E7002BAED1E2E720464F
:106B900006F075FE064600283ED1204606F06AFE45
:106BA000002839D007F07F03522B00F08880082F8F
:106BB00027D1B9F1150F0CBF10200220691D06F076
:106BC00044FEF0B1A3692046DA074BBF23F001036E
:106BD00043F00103314601214CBFA361A36106F0DC
:106BE00065FEB5F80110B5F80320B9F1150F05F1F0
:106BF00005050CBF1023022320460095FFF7C6FAB7
:106C00005DE0A36913F001023ED023F001030021EF
:106C10002046A36106F04AFE1E2F44D8012F46D914
:106C2000BB1E162B43D801A252F823F0B56C01000D
:106C3000AF6C0100E76C0100AF6C0100F76C010064
:106C4000AF6C0100E36B0100AF6C0100196D010036
:106C5000AF6C0100256D0100AF6C0100356D0100C6
:106C6000AF6C0100C76C0100AF6C0100456D010005
:106C7000AF6C0100AF6C0100AF6C0100636D0100EF
:106C8000AF6C01006D6D010043F00103A3610121B0
:106C90002046029206F00AFE1223029A3946204646
:106CA00006F07AFB0BE0522F54D0D22F07D00623E8
:106CB0000022F3E72046B5F80110FFF7A7F903A873
:106CC000FEF73CFA44E0B5F80110B5F80320B9F13D
:106CD000150F05F105050CBF3B4602232046009524
:106CE000FFF7ACF9EBE72046B5F80320B5F8011043
:106CF000FFF701FBE3E7A9F10709B5F80530B5F89F
:106D00000320B5F801101FFA89F0073501900095AE
:106D10002046FFF773FBD2E72046B5F80110FFF7D6
:106D2000DAFBCCE72046B5F80320B5F80110FFF7F1
:106D3000D8FBC4E71FFA88F22046013A691CFFF726
:106D4000D5FBBCE72046039AB5F80110FFF743FCDA
:106D50000026E8E62046039AB5F80110FFF78DFCFF
:106D6000F6E720460399FFF7C8FCF1E7204669786B
:106D7000FFF72AFDA3E71E2F7FF409AF2046FFF798
:106D800044FD9CE7134A70B51368064623F00803D8
:106D900042F60520136007F00CFA0546C0B100204A
:106DA00006F03CFD044620B92946BDE87040FFF7D7
:106DB000CABD0121204606F079FDA36923F0010335
:106DC000A3611EB13146204607F0CAFA2046E7E724
:106DD00070BD00BF280E002008B506F077FE002029
:106DE000FFF7D0FF002008BD07B5837801916A4600
:106DF000082104488DF80030FDF742FF03B05DF82C
:106E000004FB00BF140D002010B50421044642F21B
:106E1000240000F04BF94FF0FF33A0F8034043711A
:106E20008371064805F0B8F900F084F9407920B183
:106E300000F080F9407940F4805010BD83C9010012
:106E40000022054BC3E90322C3E905221A70DA6167
:106E50004FF6FF721A857047C80C0020014B18606E
:106E6000704700BFC40C002082780D4B13B55A60E8
:106E7000B0F8032091B2102910D040F60344A1428B
:106E80000CD041791B8D8DF80210ADF8042005213E
:106E90006A460448ADF80030FDF7F2FE02B010BDBE
:106EA000C80C0020140D0020034637B582790190EC
:106EB0000C329B5C10440F2B0CD8042B0ED9053BD5
:106EC0000A2B0BD8DFE803F01B0A0A1B0A0A0A0A7E
:106ED0000A141700302B12D03E2B14D005F03AF9CB
:106EE000019B834202D001A8FEF728F903B030BD10
:106EF000FFF7BAFFF2E7C2780B4B5A60EEE701A941
:106F00001EF0A6FEEAE70024084D019B43B155F8A8
:106F1000043B01A90134009098470B2C0098F4D150
:106F200001A8FEF70BF9D9E7C80C00205093030025
:106F300007B500F06DF920B103B05DF804EBFFF781
:106F4000B3BF00F071F9019018B1054B1B681BB17C
:106F5000984703B05DF804FB01A8FEF7EFF8F8E7E7
:106F6000C40C0020024610B1022804D0704703214F
:106F70000248FDF712BEFFF7DBBF00BF140D002073
:106F800008B5002141F2090000F090F80A4805F028
:106F900003F900F0CFF80346084AD0F80600106263
:106FA0005B89938400F0C6F8407920B100F0C2F804
:106FB000407940F4805008BD01C20100C80C002097
:106FC000024B1A78024B53F822301847C80C0020A5
:106FD0007C93030010B504460120FFF7F1FF034B3B
:106FE00000201C70BDE81040FFF7EABFC80C00206D
:106FF00008B550B9054B1888FFF706FFFFF7C0FF2B
:10700000BDE808400120FFF7E5BF08BDFC040020F3
:107010000220FFF7D5BF0020FFF7D2BF10B504460E
:10702000062142F2050000F041F82368C0F8033061
:10703000A388A0F80730064805F0AEF800F07AF80B
:10704000407920B100F076F8407940F4805010BDCE
:107050008FC4010038B505460C4669B9022142F2D9
:107060001B0000F023F8B5F85430A0F803300D48A9
:10707000BDE8384005F090B8122142F21A0000F045
:1070800015F82146B5F85430053020F8023C04F1DB
:10709000100351F8042B994240F8042BF9D102480F
:1070A000E6E700BF1BC8010057C8010038B50C4611
:1070B000054605F049F84379C47523F0030343F00E
:1070C000030343710923837104F10C03C371A0F816
:1070D0001550153038BD2DE9F3410D461646804652
:1070E00005F032F805F10C03C3714379044623F02F
:1070F000030343F003034371092301908371A0F854
:10710000158000F115073046FEF765FA334628442E
:10711000E0753BB901A83146FEF7BCFA384602B02B
:10712000BDE8F0815A7922F0030242F002025A715E
:107130001B68EEE708B505F00DF883790C331844A9
:1071400008BD00000148FEF717B800BFD80C0020AA
:1071500040F6FF73F7B5B0F8542001919A4204D17C
:1071600001A8FDF7EBFF03B0F0BD0B46012463BBA4
:107170001A48FEF78FFAFFF7E5FF04460028F2D021
:10718000FEF729FA6379054603F001076FF3000360
:10719000637104212046A668FEF75FF9427984797D
:1071A00067F300024271D243B6F854100C34866083
:1071B00002F001020155C1F30321071941EA02124D
:1071C0007A707D8004F0FCFFD5E75A79986022F050
:1071D000030222435A7100241B68C8E7D80C002020
:1071E00070B50546064C206800B970BD8368AB4297
:1071F00004D10668FDF7CEFE2660F4E70446F2E708
:10720000D80C002001460148FEF744BADC0C0020EF
:107210000148FDF7B1BF00BFDC0C0020014601486A
:10722000FEF738BAD40C0020034BD86818B103F12C
:107230000C00FDF7A1BF7047C80C0020044BDA68B2
:1072400022B95869003818BF0120704701207047E3
:10725000C80C0020002070470F2070470F20704797
:107260007047000013B50190FEF78EFB054B0446F6
:107270001878019A10B12146FEF778FB204602B03B
:1072800010BD00BF180D0020114B02461978D1B96E
:107290005B689B0717D490F95D30013318BF012359
:1072A000D8B292F85930012B03D192F841309B09A2
:1072B0000BD092F85A30012B08D192F847309B0935
:1072C00008BF002070470123EAE71846704700BF57
:1072D000F40C0020024B586800F00200704700BF19
:1072E000F40C0020024B586800F00800704700BF03
:1072F000F40C0020014B1B68184700BF000500205C
:10730000024B586800F01000704700BFF40C0020DA
:1073100007B502460529084634BF0846032012F087
:10732000010101D003280ED0084B5A6002F040033F
:10733000009302F0200302F0040201F005FC00209B
:1073400003B05DF804FB2120FAE700BFF40C002035
:1073500038B50D490D48FEF74FFB0446054688B980
:107360000B4B0C4A1A600C4A5A600C4A9A600C4A41
:10737000DA6001F045FC032104462846FFF7C8FF08
:10738000084B1D70204638BDEFBEADDEBEBAFECA4A
:10739000000500203D8B0100B98B01007D8B0100B1
:1073A000D58C0100F40C002010B588B005F0BCFEAF
:1073B0000446002842D090F85830022B02D0022018
:1073C00008B010BD90F85B30012B2CD190F95D0016
:1073D000431C02D1A368D90525D594F85C3013F07D
:1073E000010320D1CDE90133CDE90433CDE90633E2
:1073F000ADF80C301DF0A0FFA36850B9DA0512D526
:107400002046BDF8042004AB0DF1060107F024FA74
:10741000D6E7DB05F4D40A22022194F95D0001AB22
:107420001DF09AFCECE7002345F2170219462046AE
:1074300000F05AF90028C2D00020C1E72120BFE7A0
:1074400038B504460320FFF70DFF0546D0B194F888
:107450005630037094F85D304370204605F0BCFE52
:107460002A46A87040F202610748FDF796FB074BD9
:107470002046DB680121984794F95D00BDE838405B
:107480001DF060BC38BD00BF140D002000050020B9
:1074900070B5054604200E46FFF7E4FE044680B1B1
:1074A00095F8563000210370064B4680DB6828466D
:1074B00098472246BDE8704040F201610248FDF75E
:1074C0006CBB70BD00050020140D002038B545F2DE
:1074D0001B020C460B460021054600F005F930B9A9
:1074E0002CB121462846BDE83840FFF7D1BF38BD52
:1074F00038B5054608200C46FFF7B4FE024638B101
:10750000058044600D21BDE838400248FDF745BBC9
:1075100038BD00BF140D002038B5054608200C46C4
:10752000FFF7A0FE024650B195F8563040F20561D3
:10753000037044600248BDE83840FDF72EBB38BDFB
:10754000140D002013B504460191114612B301A990
:107550000420FEF763FA019B104A2046B3FBF2F1C8
:1075600002FB113345F218020021019301AB00F038
:10757000BBF80820FFF776FE024648B194F8563073
:1075800040F204610370019B43600548FDF705FB71
:1075900002B010BD45F2180201ABE8E740420F000F
:1075A000140D002010B504460120FFF75BFE0246D3
:1075B00048B194F8563040F203610370BDE81040C2
:1075C0000148FDF7EABA10BD140D002038B5054694
:1075D00008200C46FFF746FE024650B195F856309B
:1075E00040F20761037044600248BDE83840FDF78F
:1075F000D4BA38BD140D0020014B5B68184700BF9A
:107600000005002001F02ABA03F018BD10B50446A9
:1076100090F859103C301DF081FB84F85D001DF09E
:10762000FDFA022818BFA36820461CBF43F400439C
:10763000A360BDE8104003F0DCBC01F06BBA38B5C4
:10764000037804463E2B0D4604D18378052B02D0E7
:10765000ED2B0FD038BDB0F8030005F057FD20B179
:10766000B4F80D10621D01F01BFB2846BDE8384040
:10767000FDF764BDB0F8030005F048FD0028F4D024
:10768000B4F80D1004F10F03621D01F013FBECE7D9
:10769000CB0448BF41F48061C1607047036B3BB9C4
:1076A00090F85B20034B0448012A18BF1846704726
:1076B00018687047FD900100618D010070B50546A6
:1076C000FFF7ECFF0C4606460A46284645F2010144
:1076D000B0472B6B03B11C60324628462346BDE8F9
:1076E00070404FF4A041184711461A46064B10B59A
:1076F0001C6834B121F00041A047B0FA80F0400985
:1077000010BD2046FCE700BF100D002010B5044658
:10771000006B30B94FF4B070FEF75CF9206320B90C
:1077200010BD4FF4B07105F017FCFF23226B064922
:1077300082F85E3194F85B00044B012818BF0B46B9
:1077400001201360ECE700BFFD900100618D010096
:1077500010B50F4C2368D3B10022D3F89C001A76E1
:1077600083F8392083F85A2018F011FD206844214D
:107770005C3005F0F1FB20682121193005F0ECFBAD
:1077800020682121BDE810403A3005F0E5BB10BD6E
:10779000FC0C002010B5044645F21A01FDF7B6F9BD
:1077A0002046BDE8104047F23053002245F21A014E
:1077B000FDF7CCB910B50A46044608210020FDF7B4
:1077C000DCFD10B1837903441C7310BD38B5044649
:1077D0000D4605200221FFF7EDFF0246C0B1837977
:1077E000062103445D73204607F0D6F8204645F491
:1077F0009051FFF74DFE94F85B10064B064A204669
:1078000001290CBF11461946BDE83840FFF756BFA5
:1078100038BD00BFFD900100618D010038B50546FF
:107820000C460D201121FFF7C5FF024688B1214605
:10783000837903440D3304F1100051F8044B814265
:1078400043F8044BF9D12846BDE83840062107F03B
:10785000A3B838BD38B505460C4604201121FFF702
:10786000A9FF024688B12146837903440D3304F110
:10787000100051F8044B814243F8044BF9D12846DB
:10788000BDE83840062107F087B838BD38B5054651
:107890000C4603201121FFF78DFF024688B12146D7
:1078A000837903440D3304F1100051F8044B8142F5
:1078B00043F8044BF9D12846BDE83840062107F0CB
:1078C0006BB838BD37B50022054608211046FDF7D4
:1078D00054FD0446C0B10C2301220DF107018DF8BF
:1078E0000730FDF7E1FE296B202254312046FDF7D9
:1078F000DBFE296B202274312046FDF7D5FE22469F
:107900000621284607F048F803B030BDF8B5044614
:10791000FFF7BAFC256B0646F8B194F95D305A1CA6
:1079200002D085F85E310BE004F114001DF008FB75
:1079300085F85E01236B93F95E31013308BF0026A1
:10794000FFF7C8FC88B186B9A368DB0607D5052117
:107950002046FFF73BFF0020F8BDFF23E1E741F29F
:1079600005212046FFF794FDF5E707210120FFF7E9
:1079700021FF054608B91A21F3E7304A81791268D8
:107980000C3192F800E0431883F801E092F818C037
:10799000BCF1010F19D183F802C0301E18BF0120BD
:1079A0005769D870BF0705D4BCF1010F1CBF40F068
:1079B0000800D870507C98B1D878000710D4A3681C
:1079C000DB06C4D441F20321CBE7BCF1020F05D1A1
:1079D00092F85A0010B101209870DEE70020FBE712
:1079E000BEF1030F07D0126912F0FF1F1EBFDA7835
:1079F00042F00402DA7094F85C20970708D5DA7830
:107A0000500705D4BEF1030FDCD042F00402DA7057
:107A1000002E18BF032610225E711A719E71226B10
:107A200069582046C2F80610998851819B79062131
:107A300013732A4606F0B0FF01208DE7FC0C0020EE
:107A400008B5D0B205F070FB28B190F8343003F0DF
:107A50007F0380F83430012008BD13B5044601923D
:107A600040B1FFF71BFE03462046019A02B0BDE875
:107A700010401847022002B010BD8B790A460B4413
:107A8000197C4B1E0D2B04D801F5A0410131FFF7E5
:107A9000E4BF704770B51E460423054698B01446EF
:107AA0008DF81C3001F120020DF11D0351F8040B7B
:107AB000914243F8040BF9D120210DF11D0005F08E
:107AC0003DFA22460DF13D0304F1200152F8040B6A
:107AD0008A4243F8040BF9D120210DF13D0005F055
:107AE0002DFA06AB0293202301931C9B07AA314673
:107AF00000930E48412318F021FE4121059007A86C
:107B000005F02AFA059A52B1114640F20740FFF7F4
:107B1000EFFC08212846FFF759FE18B070BD45F26A
:107B200015012846FFF799FFF7E700BF000002099B
:107B300010B4C4691CB95DF8044B01807047002380
:107B40005DF8044B1A4618F033BF00002DE9F041F0
:107B50008AB006AC0E4603462746904600F1100256
:107B6000254618685968083303C593422C46F7D157
:107B70001021384605F0E2F90023052005931AF09C
:107B80000FFCFDF727FF044658B31A4D4FF48071E0
:107B9000FFF77EFD05614FF41051FFF7C9FF802309
:107BA000638005AB0293102329463A464046CDE94F
:107BB000006318F029FD0546A8B910233046194680
:107BC00005F0BCF91021384605F0C6F92CB1204665
:107BD00018F0E2FE2046FDF7FFFE28460AB0BDE899
:107BE000F0816FF08C05294640F20740FFF780FCDA
:107BF000E8E700BF0044400470B50D460646144651
:107C000092B0202228463D4920F0F2FF40B92022C0
:107C100020463B4920F0ECFF10B9002012B070BDA7
:107C2000366B2022284606F1540120F0E1FF38B9D6
:107C30002022204606F1740120F0DAFF002859D0F6
:107C400005201AF0ADFBFDF7C5FE064628B9014632
:107C50001A20FFF74DFC1A20E0E700234FF4804183
:107C60000093FFF715FD274B44F212110361FFF754
:107C70005FFF4FF480737380042329468DF804302E
:107C800005F120020DF1050351F8040B914243F870
:107C9000040BF9D120210DF1050005F04FF9224622
:107CA0000DF1250304F1200152F8040B8A4243F838
:107CB000040BF9D120210DF1250005F03FF96B46A9
:107CC0004122304601A918F05CFB044638B110F19E
:107CD000870F04D0014640F20740FFF709FC304609
:107CE00018F05AFE3046FDF777FE009818F04FFA6C
:107CF000002C92D040F2034090E700BF2094030094
:107D000040940300000002092DE9F0439846002347
:107D100087B0044605200E461746CDE904331AF015
:107D20003FFBFDF757FE0546A8B3DFF870904FF410
:107D30008051FFF7ADFC4FF41051C0F81090FFF7E1
:107D4000F7FE802321466B801022284604AB18F0F2
:107D500018FB044660B905AB029310233246CDE907
:107D6000008349463B46049818F024FC044620B1A1
:107D7000214640F20740FFF7BBFB049818F007FAD2
:107D80002DB1284618F008FE2846FDF725FE2046AE
:107D900007B0BDE8F0836FF08C04E9E70002C00390
:107DA0002DE9F0419CB0154608AA1C4606460B4634
:107DB0009046239F01F1200E9446186859680833B5
:107DC000ACE8030073456246F6D12021404605F039
:107DD000B5F810AB2A469C4605F1200E1D461068EA
:107DE0005168083203C572452B46F7D16046202101
:107DF00005F0A4F818AA9446229B03F1100E15462C
:107E000018685968083303C573452A46F7D1604698
:107E1000102105F093F804AA2346154604F1100C2E
:107E2000144618685968083303C463452246F7D1DD
:107E30001021284605F082F86B465022414628461C
:107E4000FFF762FF04461021284605F085F850210F
:107E5000404605F081F834B108213046FFF7B6FC02
:107E60001CB0BDE8F081039B38463B60042105F05F
:107E700065F86846102105F06FF8224645F21401B6
:107E80003046FFF7EAFDEBE72DE9F04306460C46E6
:107E90001D4697B0DDF88890DDF89080269F0DF1A3
:107EA000140C02F1100E634610685168083203C3C7
:107EB00072459C46F7D1102105A805F03FF82B46E6
:107EC00009AD03F1100C2A4618685968083303C23B
:107ED00063451546F7D1102109A805F02FF80DAA22
:107EE00094461E9B03F1100E154618685968083316
:107EF00003C573452A46F7D16046102105F01EF8E8
:107F00009DF87C30D9F800008DF844309DF8803021
:107F100006218DF845309DF8843012908DF846305A
:107F20009DF88C3012A8003B18BF01238DF8473014
:107F3000B9F80430ADF84C3005F000F89DF89430F5
:107F40000621003B18BF01238DF84E30D8F80030D1
:107F50000DF14F00CDF84F30B8F80430ADF8533084
:107F600004F0ECFF01AA2346154604F1100C144658
:107F700018685968083303C463452246F7D11021B5
:107F8000284604F0DBFF3B46412205A92846FFF7BF
:107F9000BBFE04461021284604F0DEFF412105A85F
:107FA00004F0DAFF34B108213046FFF70FFC17B0B8
:107FB000BDE8F0833846102104F0C0FF224645F2A8
:107FC00013013046FFF749FDF1E700002DE9F04FBE
:107FD00097B01546DDE9247904AA06468C469046FA
:107FE0001C46564BDDF880A003F1100B964618682E
:107FF00059680833AEE803005B457246F6D16B461C
:10800000202261464046FFF77FFE8346002878D154
:1080100062238DF8213074238DF822306C238DF883
:10802000233065238DF824300DF125038DF82000D1
:10803000184605F1100255F8041B954243F8041B3D
:10804000F9D1102104F07AFF0DF13503184604F13F
:10805000100254F8041B944243F8041BF9D1102178
:1080600004F06CFF9DF884300621003B18BF01230B
:108070008DF84530DAF800300DF14600CDF8463085
:10808000BAF804300124ADF84A3004F057FF9DF8E7
:108090008C300621003B18BF01238DF84C30229B09
:1080A0000DF14D001B68CDF84D30229B9B88ADF83B
:1080B000513004F043FF002335228DF854306846D8
:1080C0004B4608A98DF85340FFF71EFE8346C0B902
:1080D0001021484604F032FF3B463522684608A985
:1080E0008DF82040FFF710FE834650B9B27C014660
:1080F000C2F110023846FAF721FC1021384604F08C
:108100001DFF1021684604F027FF352108A804F060
:1081100023FF1021404604F01FFFBBF1000F06D0E3
:1081200008213046FFF752FB17B0BDE8F08F5A46E2
:1081300045F212013046FFF790FCF5E78493030007
:108140002DE9F04196B0154605AA1C4606460B4699
:1081500090461D9F01F1200E944618685968083317
